:020000040000FA
:100044009EAAFED7ABA203D0AB98AB88F9D7EC6ECF
:10005400AE50ABA402D0ED50F3D71200ACA2FED741
:10006400AD6EED501200EF36E8340500FE6EED5033
:10007400FD6EED501200DA6AD96EFD50DE6EFE5050
:10008400DE6EED5006001200EF60EF6EED50E844B6
:10009400FD26010BFE22ED501200EC6EF29E550E71
:1000A400A76EAA0EA76EA682F28EED501200A68449
:1000B400A688F3D7A684A6980A00EFDF09001200E9
:1000C400EC6E0050EC6E0150D0D7EC6E0250EC6E2A
:1000D4000350CBD7120012001200EC6EFF0EF5DFB6
:1000E400F4D7F3DFEDDFEC6EF0DFFF0F010F02E179
:1000F400ED501200E46EED50E3DFE7DFE706FCE1CC
:10010400E5521200EC6E000EE8DFE6D705002DD8AC
:10011400FE6EED50FD6EED501200EC6E010EDDDF53
:10012400D4DFDAD7FADF27D0A68EA69CC0DFEAD7C1
:10013400A68EA69CBFDFE6D70F0BA9DFE3D717D0A7
:10014400ECD717D04ED053D0DDD7E0D72BD01FD06B
:100154003ED032D052D05DD0E7D7EAD7B1DFFF0F1F
:10016400ED5001E21200ACDFE7D7AADFA9D7A8DF80
:10017400C9D7CCDFC7D7AFDFA3DFFF0F02E2ED5053
:10018400EDD7AFD7F8DFFED79BDFEC6EA6D7FCDF49
:10019400E46EED50EC6E0900F55097DFE706FAE1E6
:1001A400E5529AD7F1DFE46EED50EC6EDE508DDF50
:1001B400E706FBE1E55290D783DFE46EED5080DF84
:1001C400F56E0D00ED50E706FAE1E5529BD778DFB6
:1001D400E46EED5075DFDE6EED50E706FBE1E552AF
:1001E40091D7C3DFDA6EED50D96EED508BD7BDDFFA
:1001F400F76EED50F66EED5085D7EC6E400EE46E62
:10020400FF0EEC6E0900F550ED14E706FAE1E55235
:1002140084D7EC6EE95081D775DFB4D706000600A9
:020224001200C6
:020000040030CA
:0E00000000C80F000080800003C003E0034032
:020000040000FA
:020000001FD00F
:020000040000FA
:02004000FCD0F2
:020000040000FA
:10022600EC6E000E27DF0BD7EC6E020E23DF15D720
:10023600F7DFFAD7000EFC6E00EE7FF010EE8FF0BF
:10024600000EFC6E8A68EC6E700ED36EC18AC18C8D
:10025600938893820C0EAF6E240EAC6E900EAB6E2E
:0A026600ED50E6DF81A801D08CD72F
:00000001FF
