:020000040000FA
:10004400E838EC6E0F0BDA6EED50F00BD96EED5014
:100054001200F6DFEC6E100EE46EED50DE6AE70679
:10006400FDE1E5521200ECDFF76EED50F66E100E76
:10007400E46EED50EC6E0900F550DE6EED50E706CF
:10008400F9E1E5521200EF60EF6EED50E844FD2611
:10009400010BFE22ED501200F80BE840E840E84066
:1000A4001200FC0BFBD7E8380F0B12009EAAFED7F8
:1000B400ABA203D0AB98AB88F9D7EC6EAE50ABA42F
:1000C40002D0ED50F3D71200ACA2FED7AD6EED50C6
:1000D4001200EF36E8340500FE6EED50FD6EED5073
:1000E4001200DA6AD96EFD50DE6EFE50DE6EED50FF
:1000F40006001200EC6EF29E550EA76EAA0EA76EB5
:10010400A682F28EED501200A684A688F3D7A684A8
:10011400A6980A00EFDF09001200EC6E0050EC6EA6
:100124000150D9D7EC6E0250EC6E0350D4D71200B4
:1001340012001200EC6EFF0EF5DFF4D7F3DFEDDFF3
:10014400EC6EF0DFFF0F010F02E1ED501200E46EE0
:10015400ED50E3DFE7DFE706FCE1E5521200EC6E69
:10016400000EE8DFE6D705002DD8FE6EED50FD6EDB
:10017400ED501200EC6E010EDDDFD4DFDAD7FADFCA
:1001840027D0A68EA69CC0DFEAD7A68EA69CBFDF8A
:10019400E6D70F0B7BDFE3D717D0ECD717D04ED0C1
:1001A40053D0DDD7E0D72BD01FD03ED032D052D0A1
:1001B4005DD0E7D7EAD7B1DFFF0FED5001E21200BF
:1001C400ACDFE7D7AADFA9D7A8DFC9D7CCDFC7D769
:1001D400AFDFA3DFFF0F02E2ED50EDD7AFD7F8DFBB
:1001E400FED79BDFEC6EA6D7FCDFE46EED50EC6E21
:1001F4000900F55097DFE706FAE1E5529AD7F1DFF7
:10020400E46EED50EC6EDE508DDFE706FBE1E55267
:1002140090D783DFE46EED5080DFF56E0D00ED5076
:10022400E706FAE1E5529BD778DFE46EED5075DF1F
:10023400DE6EED50E706FBE1E55291D7C3DFDA6EDF
:10024400ED50D96EED508BD7BDDFF76EED50F66EE5
:10025400ED5085D7EC6E400EE46EFF0EEC6E090097
:10026400F550ED14E706FAE1E55284D7EC6EE95057
:0C02740081D775DFB4D706000600120029
:020000040030CA
:0E00000021023A1E008185000FC00FE00F4064
:020000040000FA
:10028000EC6E000E30DF14D7EC6E020E2CDF1ED7A2
:10029000F7DFFAD7EC6E080EE46E000E81BCFED7D5
:1002A00081ACFED7EC6E8134ED50E830E706F6E124
:1002B000E5521200EC6E080EE46EED5081BCFED7E4
:0E02C00081ACFED7939EE83002E38A8E01D017
:020000040000FA
:020000001FD00F
:020000040000FA
:0200400061D18C
:020000040000FA
:1002CE008A9EE706F4E1E552ED50120081BCFED79E
:1002DE0081ACFED7939E8A8E81BCFED781ACFED7B1
:1002EE008A9E938E120081BCFED781ACFED7939E60
:1002FE008A9E938E1200000EFC6E00EE7FF010EEC2
:10030E008FF0000EFC6E948E949CEC6E330EAF6EDE
:10031E00000EB06E240EAC6E900EAB6EB886ED5025
:08032E00B0DF82AE01D056D70A
:00000001FF
