:020000040000FA
:10004400EC6EFF0EEB50EC6EFF0EEB50120000D87E
:10005400ED50ED501200E46EED50E46EED50ED50B5
:10006400E550EC6EE5501200D890EF36E8341200FB
:10007400D890E830EF321200800FE830400AEF32B7
:100084001200E46EED50EDCFE4FFEF26E550E520DD
:100094001200E46EED50EDCFE4FFEF5EE550E55461
:1000A4001200E81EEF1E1200E46E010EEF26000E91
:1000B400E722E5501200E46EFF0EEF26E722E5503A
:1000C4001200EFDFF1D7E46EED50EDCFE4FF120044
:1000D400FADFEF16E550E5141200F5DFEF1AE550EC
:1000E400E5181200F0DFEF12E550E5101200E46E9F
:1000F400ED50ED50E5501200EDCFE4FFEF26000E79
:10010400E5201200EDCFE4FFEF26FF0EE5201200FC
:10011400E8AE01D0F7D7F0D7ED50FF0EEC6EFF0C30
:10012400ED50000EEC6E000CED02F4CFE4FFF3CFC3
:10013400E4FFED02F450E524E844010BE52012004D
:100144007FDFF2DFD9D77CDFEFDFE86CDBD7EC6E43
:10015400000EEC6E080EE46EED50D89000360136B9
:1001640006E3EC6E0250001A0350011AED50E83415
:10017400E706F3E1E5521200EC6E000EEC6E010EA0
:10018400EADF01501200E844FD26010BFE22FD9037
:10019400FD50F66EFE50F76EED500600EC6E090051
:1001A400F550EC6E0900F5501200EC6EF29E550EFF
:1001B400A76EAA0EA76EA682F28EED501200A68438
:1001C400A688F3D7A684A6980A00EFDF09001200D8
:1001D400EF60EF6EED50E844FD26010BFE22ED507A
:1001E4001200EF36E8340500FE6EED50FD6EED5062
:1001F40012009EAAFED7ABA203D0AB98AB88F9D766
:10020400EC6EAE50ABA402D0ED50F3D71200ACA20A
:10021400FED7AD6EED501200DA6AD96EFD50DE6E77
:10022400FE50DE6EED5006001200EC6E0450EC6ED3
:100234000550D9D7EC6E0650EC6E0750D4D7120097
:1002440012001200EC6EFF0EF5DFF4D7F3DFEDDFE2
:10025400EC6EF0DFFF0F010F02E1ED501200E46ECF
:10026400ED50E3DFE7DFE706FCE1E5521200EC6E58
:10027400000EE8DFE6D705002DD8FE6EED50FD6ECA
:10028400ED501200EC6E010EDDDFD4DFDAD7FADFB9
:1002940027D0A68EA69C93DFEAD7A68EA69C92DFD3
:1002A400E6D70F0B98DFE3D717D0ECD717D04ED093
:1002B40053D0DDD7E0D72BD01FD03ED032D052D090
:1002C4005DD0E7D7EAD7B1DFFF0FED5001E21200AE
:1002D400ACDFE7D7AADFA9D7A8DFC9D7CCDFC7D758
:1002E400AFDFA3DFFF0F02E2ED50EDD7AFD7F8DFAA
:1002F400FED79BDFEC6EA6D7FCDFE46EED50EC6E10
:100304000900F55097DFE706FAE1E5529AD7F1DFE5
:10031400E46EED50EC6EDE508DDFE706FBE1E55256
:1003240090D783DFE46EED5080DFF56E0D00ED5065
:10033400E706FAE1E5529BD778DFE46EED5075DF0E
:10034400DE6EED50E706FBE1E55291D7C3DFDA6ECE
:10035400ED50D96EED508BD7BDDFF76EED50F66ED4
:10036400ED5085D7EC6E400EE46EFF0EEC6E090086
:10037400F550ED14E706FAE1E55284D7EC6EE95046
:0C03840081D775DFB4D706000600120018
:020000040030CA
:0E00000000C80F000080800003C003E0034032
:020000040000FA
:10039000EC6E040E43DF2FD7EC6E060E3FDF39D72D
:1003A000EC6ED650090F0C24EC6E0D50D722ED5098
:1003B000D66EED501200EC6ECE50070F0E24EC6E90
:1003C0000F50CF22ED50CE6EED501200EC6EB250B9
:1003D000070F1024EC6E1150B322ED50B26EED50A9
:1003E0001200EC6E0D50D76E0C50D66EED50120010
:1003F000EC6E0F50CF6E0E50CE6EED501200EC6EC4
:100400001150B36E1050B26EED5012001DD815A0F1
:1004100003D08A948A8612008A848A961200EC6E2F
:100420001428E840E840156EED501200EC6E1430D0
:100430001536E8301522ED501200156A1200EC6EE8
:100440001440156EED501200EC6E1350030BC5DE18
:10045000F4D7ECD7E4D7F3D79EA203D09E923BD833
:100460001100F2A403D0F2940CD811009EA003D086
:100470009E9012D81100A1A203D0A19225D81100FC
:10048000FF008EDF147413A802D0B2DF148213AA07
:1004900002D0B5DF1480BAD78EDF13AE0FD0D8905C
:1004A0000036013606E3EC6E0250001A0350011AC2
:1004B000ED5002E3148201D0149201D0147213ACF7
:1004C00002D09DDF1480A2D781DF13AA02D014903E
:1004D00001D014709BD7EC6EE85C082209220A2236
:1004E0000B22ED501200F184EC6E030E9F6E020E93
:1004F000A26E880ED56E810ECD6E040ECA6E810E70
:10050000B16ED08E3F0ECB6EED501200EC6E600ED1
:10051000F26EED509E6AEC6E030E9D6EED50A16A78
:10052000EC6E020EA06EF28EED501200F29A9D6AF1
:10053000A06A1200F29A12009D901200A09212007E
:100540009D921200F28A12009D801200A082120079
:100550009D821200C8DFEC6ED70E026EED5000686F
:10056000EC6E500E036EED50016893949396CED7C7
:10057000DDDF8A948A961200000A04E1ED50000E35
:10058000EC6E010EEF1EFF0A1200EC6EF5DFF29E1C
:100590000D6EEF500C6EF28EED50ED501200EC6EC1
:1005A000EBDFF29E0F6EEF500E6EF28EED50ED50BF
:1005B0001200EC6EE1DFF29E116EEF50106EF28EC3
:1005C000ED50ED501200EC6E0C50EC6E0D50DAD781
:1005D000EC6E0E50EC6E0F50D5D7EC6E1050EC6EEA
:1005E0001150D0D7EC6E310E136EFF0ED8DFEC6ECB
:1005F000FF0EDFD7EC6E210E136EFF0EDAD7EC6E16
:10060000010E136EED501200A4DDBFDFA2DDC7DFC7
:10061000A0DDCFDFF4D7E46EED50E46EED501200B4
:10062000EC6EE550EC6EE5501200EC6EE3DFF3DFAC
:10063000CADFF6DF30DDB4D7EC6E320E136EED504C
:10064000C2DF18DDFFDCB6DF15DDAAD7136A1200A2
:10065000EC6E170EEF60EF6EED5097DDE4EE7CE18F
:10066000D4D4E2C89CBDF7B2ECA8719F7E960C8EE4
:1006700013868C7E7277BE706A6A7164CE5E7C5916
:100680007654B84F3F4B06470943463FED50E0DFF5
:10069000EC6E1A5007E0E46EED50ECDCE706FDE18D
:1006A000E55201D0ED501200ED501A6EED501200DF
:1006B000EEDF6CD7ECDF74D7EADF7CD784DFED6E3A
:1006C000120086DFED6E120088DFED6E1200EC6E18
:1006D0001350E46EED501200EC6EE550136EED50C9
:1006E000120071DF98D79CDF51D772DF94D798DF63
:1006F00057D773DF90D794DF5DD7E9DFBBD8E46EBF
:10070000ED5008B4FED708A4FED7E706FAE1E5529B
:10071000E3D7070BD890E834D890E8340109C26ECB
:10072000ED501200C2821200C2B2FED7EC6EC4506D
:100730001200EFDFF7DFF8D7898E1200899E1200D2
:10074000EC6E1F0E9212929E600EC16E7E0EC06EF7
:10075000ED50F2D7EC6E000EECDF17DFEC6E010E01
:10076000E8DF1DDFEC6E020EE4DF23DFEC6E030E2C
:10077000E0DFFF0AEC6E800BEC6E7F0E1316ED507F
:100780001312ED50E844E844E844030BEC6EFC0E11
:100790001316ED501312040ECCDFFF0AE840700B65
:1007A000EC6E8F0E1316ED501312ED501200EC6E1E
:1007B000F550EC6EF650EC6EF750EC6ED950EC6ED6
:1007C000DA50EC6EFC50EC6EE150EC6EE9501B1808
:1007D0001B1A1B18E96EED50E16EED50FC6EED50EA
:1007E000DA6EED50D96EED50F76EED50F66EED50BD
:0607F000F56EED50120051
:020000040000FA
:0200080027D2FD
:020000040000FA
:020000001FD00F
:020000040000FA
:02004000F9D3F2
:020000040000FA
:1007F600EC6EF550EC6EF650EC6EF750EC6ED95090
:10080600EC6EDA50EC6EFC50EC6EE150EC6EE9509A
:100816001B6E100EFC6EF00EE16EE00EE96E1C50C3
:10082600EC6E1D50DFD489DF92DE91DFFED7000E1D
:10083600FC6E00EE7FF010EE8FF0000EFC6E8A6804
:10084600EC6E700ED36EC18AC18C938893820C0EA7
:10085600AF6E240EAC6E900EAB6EED5013D86DDFFE
:1008660076DE81A801D042D572DE71DFFED7EC6E4E
:10087600830E136EFF0E86DEEC6EFF0E97DEEC6EB9
:08088600010E8AD682DD85D542
:00000001FF
